:020000040800F2
:1000000000800020B5050008FD050008FD0500087A
:10001000FD050008FD050008FD05000800000000C2
:10002000000000000000000000000000FD050008C6
:10003000FD05000800000000FD050008FD050008A2
:10004000FD050008FD050008FD050008FD05000888
:10005000FD050008FD050008FD050008FD05000878
:10006000FD050008FD050008FD050008FD05000868
:10007000FD050008FD050008FD050008FD05000858
:10008000FD050008FD050008FD050008FD05000848
:10009000FD050008FD050008FD050008FD05000838
:1000A000FD050008FD050008FD050008FD05000828
:1000B000FD050008FD050008FD050008FD05000818
:1000C000FD050008FD050008FD050008FD05000808
:1000D000FD050008FD050008FD050008FD050008F8
:1000E000FD050008FD050008FD050008FD050008E8
:1000F000FD05000800000000FD050008FD050008E2
:100100000000000000000000FD050008FD050008DB
:10011000FD050008FD050008FD05000800000000C1
:10012000FD050008000000000000000000000000C5
:0C01300000000000000000005FF808F173
:10013C0010B5054C237833B9044B13B10448AFF315
:10014C0000800123237010BD3C040020000000003F
:10015C000406000808B5034B1BB103490348AFF371
:10016C00008008BD000000004004002004060008C8
:10017C00154B002B08BF134B9D46A3F5803A00216D
:10018C008B460F461348144A121A00F0E5F80F4B31
:10019C00002B00D098470E4B002B00D09847002026
:1001AC00002104000D000D48002802D00C4800F07E
:1001BC0085F900F0ADF82000290000F01DF800F0E2
:1001CC0097F800BF000008000000000000000000CD
:1001DC00000000003C0400207C040020C90400083E
:1001EC00D50400085C060008000000203C04002038
:1001FC003C0400207C040020002070470E4B1A6841
:10020C0042F480721A6099680C4A0A409A601A6823
:10021C0022F0885222F001121A601A6822F480220D
:10022C001A609A6822F47D029A600022DA60044B0C
:10023C004FF000629A607047003802400CC0FF8893
:10024C0000ED00E0264B9B6803F00C030C2B3AD816
:10025C00DFE803F0073939391E3939392239393990
:10026C0026001F4B5B68C3F3423301334FF400424B
:10027C0002FA03F31B4A1360194B9A681949C2F32B
:10028C000312194B13441A7B0B68D3400B60704755
:10029C00144B164A1A60EFE7124B144A1A60EBE73C
:1002AC000F4A91689368C1F383410F48415CC3F3D3
:1002BC008153013392680D4A02FB01F2B2FBF3F356
:1002CC00084A1360D8E7064B5B68C3F3423301332B
:1002DC004FF4004202FA03F3024A1360CCE700BF6A
:1002EC0000380240040000202006000800127A00AA
:1002FC0008B50021044600F089F8044B1868C36B5C
:10030C0003B19847204600F075F900BF4406000879
:10031C0070B50D4E0D4D761BB61006D00024013471
:10032C0055F8043B9847A642F9D1094E094D00F007
:10033C0065F9761BB61006D00024013455F8043B41
:10034C009847A642F9D170BD500600085006000827
:10035C005806000850060008F0B4860746D0541E14
:10036C00002A3CD0CAB2034602E014F1FF3436D363
:10037C0003F8012B9D07F8D1032C29D9CDB245EAFE
:10038C0005250F2C45EA054533D9A4F1100636098D
:10039C0003F1200707EB061703F1100242E904559D
:1003AC0042E902551032BA42F8D1721C14F00C0F0B
:1003BC0003EB021204F00F0613D0331F23F00303D8
:1003CC000433134442F8045B9342FBD106F003045C
:1003DC002CB1C9B21C4403F8011B9C42FBD1F0BCEC
:1003EC00704734461346002CF3D1F8E71446034605
:1003FC00C2E71A462646E0E7024B13B1024800F06A
:10040C005DB8704700000000D50400082DE9F04FDE
:10041C004FF00009274B83B0019018680F4600F08D
:10042C0077F8254BD3F800A0DAF848618EB17468E0
:10043C00651E0ED44FF00108444406EB84047FB1D2
:10044C00D4F80031BB420BD0013D6B1CA4F1040469
:10045C00F5D1184B186803B0BDE8F04F00F060B848
:10046C0073682268013BAB420CBF7560C4F8009006
:10047C00002AE9D0D6F8881108FA05FC1CEA010F0D
:10048C00D6F804B008D1904772685A45CCD1DAF846
:10049C004831B342D8D0C7E7D6F88C31D4F88010A5
:1004AC001CEA030F02D101989047EDE708469047EC
:1004BC00EAE700BF38040020440600080023014688
:1004CC001A46184600F02EB838B50A4C0A4D641B73
:1004DC00A4100AD004F18043013B05EB8305013CD9
:1004EC0055F804399847002CF9D1BDE8384000F094
:1004FC008BB800BF5C06000858060008704700BFA8
:10050C00704700BF704700BF704700BF704700BF07
:10051C00704700BF0120704701207047704700BF33
:10052C00704700BF2DE9F0411D4C054620689046F0
:10053C001F460E46FFF7ECFF1A4B1A68D2F84831EB
:10054C001BB35A6820681F2A24DC4DB9511C023297
:10055C00596043F82260FFF7E3FF0020BDE8F0810B
:10056C00012403EB820CCCF88880D3F888119440DA
:10057C002143022DC3F88811CCF80871E6D1D3F8C9
:10058C008C110C43C3F88C41E0E702F5A673C2F85A
:10059C004831D6E7FFF7C4FF4FF0FF30DEE700BF6E
:1005AC003804002044060008002103E00B4B5B5884
:1005BC00435004310A480B4B42189A42F6D30A4A6C
:1005CC0002E0002342F8043B084B9A42F9D3FFF7B0
:1005DC0015FEFFF79DFEFFF70FFE70475C06000847
:1005EC00000000203C0400203C0400207C0400207F
:1005FC00FEE70000FEE700BF00000000F8B500BFFA
:10060C00F8BC08BC9E467047F8B500BFF8BC08BCE7
:04061C009E4670473F
:10062000030406080C101820300000000000000031
:100630000000000001020304060708090000000092
:08064000010203041000002078
:0806480034FBFF7F01000000FC
:08065000050400086101000827
:040658003D01000858
:10065C000000000068FF1F001000002000000000D8
:10066C0000000000FC02002064030020CC030020EA
:10067C00000000000000000000000000000000006E
:10068C00000000000000000000000000000000005E
:10069C00000000000000000000000000000000004E
:1006AC00000000000000000000000000000000003E
:1006BC00000000000000000000000000000000002E
:1006CC00000000000000000000000000000000001E
:1006DC00000000000000000000000000000000000E
:1006EC0000000000000000000000000000000000FE
:1006FC0000000000000000000000000000000000EE
:10070C0000000000000000000100000000000000DC
:10071C000E33CDAB34126DE6ECDE05000B000000A1
:10072C0000000000000000000000000000000000BD
:10073C0000000000000000000000000000000000AD
:10074C00000000000000000000000000000000009D
:10075C00000000000000000000000000000000008D
:0C0A8C00000000000000000058040020E2
:04000005080005B535
:00000001FF
